E898000000130012000089    0010000005+109901/010117  HKA_012000089_00100_00005+109901.pdf                    001311225HKA
E898000000230012000089    0020000005+100002/020922  HKA_012000089_00200_00005+100002.pdf                    001311225HKA
E898000000330012000089    0030000005+100001/010117  HKA_012000089_00300_00005+100001.pdf                    001311225HKA
E898000000430012000089    0040000005+100102/010121E HKA_012000089_00400_00005+100102.pdf                    001311225HKA
E898000000530012000089    0050000005+100101/010117  HKA_012000089_00500_00005+100101.pdf                    001311225HKA
E898000000630012000089    0060000005+100202/010117  HKA_012000089_00600_00005+100202.pdf                    001311225HKA
E898000000730012000089    0070000005+100201/010117  HKA_012000089_00700_00005+100201.pdf                    001311225HKA
